:020000040800F2
:1000000000070020C1010008C9010008CB01000859
:10001000CD010008CF010008D10100080000000058
:10002000000000000000000000000000D3010008F4
:10003000D501000800000000D7010008410A0008AF
:10004000DB010008DB010008DB0100089D08000857
:10005000DB010008DB010008DB010008DB01000810
:10006000DB010008DB010008DB010008DB01000800
:10007000DB010008DB010008DB010008DB010008F0
:10008000DB010008DB010008DB01000800000000C4
:10009000000000000000000000000000DB0100087C
:1000A000DB010008DB010008DB010008DB010008C0
:1000B000DB010008DB010008DB010008DB010008B0
:1000C000DB010008DB010008DB010008DB010008A0
:1000D000DB010008AD0B0008DB010008DB010008B4
:1000E000DB010008DB010008DB0100080000000064
:1000F0000000000000000000000000000000000000
:1001000000000000000000000000000000000000EF
:100110000000000000000000DB010008DB01000817
:1001200000F002F800F03CF80AA090E8000C8244CD
:100130008344AAF10107DA4501D100F031F8AFF2AA
:10014000090EBAE80F0013F0010F18BFFB1A43F0B5
:1001500001031847DC210000FC210000103A24BFF5
:1001600078C878C1FAD8520724BF30C830C144BF1C
:1001700004680C607047000000230024002500265E
:10018000103A28BF78C1FBD8520728BF30C148BFFA
:100190000B6070471FB500F0E9F81FBD10B510BD2A
:1001A00000F0F6F81146FFF7F5FF00F0D7FF00F07A
:1001B00014F903B4FFF7F2FF03BC00F01DF90000CF
:1001C0000948804709480047FEE7FEE7FEE7FEE7EB
:1001D000FEE7FEE7FEE7FEE7FEE7FEE70448054927
:1001E000054A064B70470000490B00082101000832
:1001F0000001002000070020000300200003002071
:1002000040EA010370B59B072ED14FF00136042A56
:100210002AD308C810C99D1B9D43121F15EAC61595
:1002200017D0D8B2E1B2401A50EA056110D198B2A5
:10023000A1B2401A50EA05410AD123F07F4024F0D0
:100240007F41401A50EA052102D1180EA0EB14603C
:1002500070BDA342DBD018BA21BA884201D901206F
:1002600070BD4FF0FF3070BD0AB9002070BD10F8AE
:10027000013B11F8014B63B1A3420AD1521E08D0D1
:1002800010F8013B11F8014B1BB1A34201D1521EE2
:10029000EDD1181B70BD4FF0000200B51346944617
:1002A0009646203922BFA0E80C50A0E80C50B1F1CE
:1002B0002001BFF4F7AF090728BFA0E80C5048BFE2
:1002C0000CC05DF804EB890028BF40F8042B08BF80
:1002D000704748BF20F8022B11F0804F18BF00F87C
:1002E000012B70474FF0013C50F8042B51F8043BB0
:1002F0009A4221D1A2EB0C03934313EACC1317D1FA
:1003000050F8042B51F8043B9A4215D1A2EB0C0390
:10031000934313EACC130BD150F8042B51F8043B50
:100320009A4209D1A2EB0C03934313EACC13DBD01E
:100330004FF00000704700BFD01A01BAB1FA81F146
:1003400001F0180122FA01F0CB40C1F12001DBB22B
:10035000C0B2C01A2CFA01F3D11A914311EAC311A9
:10036000E6D17047704770477047000070B5064C83
:100370007C44064D7D4403E0206820448047241DD2
:10038000AC42F9D170BD0000DC1F0000DC1F000092
:10039000754600F02BF8AE4605006946534620F03E
:1003A0000700854618B020B5FFF718FFBDE82040CC
:1003B0004FF000064FF000074FF000084FF0000B21
:1003C00021F00701AC46ACE8C009ACE8C009ACE8D4
:1003D000C009ACE8C0098D46704710B50446AFF3BC
:1003E00000802046BDE81040FFF7E3BE004870479C
:1003F0009C0000207047000001491820ABBEFEE7BA
:100400002600020008B50146002000900348009035
:100410000098084400900098008808BD006C0040D7
:1004200008B500220092044A0092009A0244009209
:10043000009A116008BD0000006C00402DE9F041F9
:10044000024600250026002000230024002791F802
:1004500003C00CF00F0591F803C00CF0100CBCF1B8
:10046000000F03D091F802C04CEA050591F800C0D6
:10047000BCF1000F31D0146800202BE04FF0010CCC
:100480000CFA00F3B1F800C00CEA03069E4220D13A
:1004900083004FF00F0C0CFA03F7BC4305FA03FC82
:1004A0004CEA040491F803C0BCF1280F06D14FF0C8
:1004B000010C0CFA00FCC2F814C00AE091F803C069
:1004C000BCF1480F05D14FF0010C0CFA00FCC2F84A
:1004D00010C0401C0828D1D31460B1F800C0BCF192
:1004E000FF0F34DD546800202EE000F1080C4FF0BF
:1004F000010808FA0CF3B1F800C00CEA03069E42AA
:1005000021D183004FF00F0C0CFA03F7BC4305FA1E
:1005100003FC4CEA040491F803C0BCF1280F05D198
:1005200000F1080C08FA0CF8C2F8148091F803C026
:10053000BCF1480F07D100F1080C4FF0010808FA90
:100540000CF8C2F81080401C0828CED35460BDE8D7
:10055000F08141617047016170474FF6FF71018082
:10056000022181700421C1707047000070B5002124
:1005700000230F22C47804B3154C246804F4E0640B
:10058000C4F5E064210AC1F10403CA40447804FAC6
:1005900003F184781440214309010E4C0678A155DB
:1005A000047804F01F050124AC4005786D11AD00FE
:1005B00005F1E025C5F8004109E0047804F01F05C5
:1005C0000124AC40044D0678761145F8264070BDF4
:1005D0000CED00E000E400E080E100E00149086289
:1005E0007047000000000E420349096841EA80019B
:1005F000014A116070470000007000400A4800681E
:1006000040F00400084908600846006840F0020015
:1006100008600648006840F004000449086000BF14
:1006200000BF30BF704700000070004010ED00E0D8
:1006300001460020034A52680A400AB1012000E046
:10064000002070470070004029B1064AD269024379
:10065000044BDA6104E0034AD2698243014BDA6158
:10066000704700000010024029B1064A9269024317
:10067000044B9A6104E0034A92698243014B9A61F8
:1006800070470000001002400149086070470000F8
:10069000400442420348406A40F080700149486289
:1006A000704700000010024070B5002100230024B4
:1006B000002200252C4E766806F00C0121B1042999
:1006C00005D0082921D105E0284E066020E0274EFC
:1006D00006601DE0244E766806F47013224E76689C
:1006E00006F48034022606EB93431CB9204E5E4389
:1006F000066009E01C4EF66A06F00F06751C1B4EDC
:10070000B6FBF5F65E43066002E0184E066000BFD9
:1007100000BF154E766806F0F0010909154E725CAF
:100720000668D6404660104E766806F4E061090A15
:10073000104E725C4668D64086600B4E766806F4B2
:100740006051C90A0B4E725C4668D640C660064EC0
:10075000766806F44041890B074E725CC668B6FBAA
:10076000F2F6066170BD00000010024000127A002F
:1007700000093D0024000020340000200146002034
:10078000034A506820F0F0000843506070470000B2
:10079000001002400149086070470000000042421A
:1007A0000149086070470000800442420146002071
:1007B000034A506820F4E06008435060704700002E
:1007C0000010024001460020034A506820F46050A7
:1007D00040EAC100506070470010024001490866BD
:1007E000704700000000424202460020044B586857
:1007F00020F4741042EA01031843014B586070471B
:100800000010024001490860704700003C04424269
:100810000249096A0143014A11627047001002400F
:1008200001460020034A506820F00300084350604E
:100830007047000000100240024909888143014AC4
:1008400011807047042800400348008840F01000E1
:1008500001490880704700000428004003480088D0
:100860004FF6EF71084001490880704704280040A6
:10087000002103480188001F008841EA00407047BA
:100880001C28004001460020034A12880A400AB191
:10089000012000E0002070470428004010B502202D
:1008A000FFF7CAFF10BD000029B1064A12880243B3
:1008B000044B1A8004E0034A12888243014B1A80D9
:1008C000704700000028004000B50246FFF7BCFF5B
:1008D000100C03490880091D0A80FFF7BFFF00BD07
:1008E0002028004000B50246FFF7AEFF100C034978
:1008F0000880091D0A80FFF7B1FF00BD18280040DD
:1009000000B50246FFF7A0FFC2F303400349088089
:10091000091D0A80FFF7A2FF00BD00000828004063
:1009200000BF0348008800F020000028F9D070477D
:1009300004280040074800884FF6F7710840054931
:10094000088000BF0348008800F008000028F9D0A4
:10095000704700000428004010B500F001F810BDF9
:100960000CB50020019000902A48006840F48030C7
:100970002849086000BF2748006800F40030009054
:100980000198401C0190009818B90198B0F5A06F2B
:10099000F1D12048006800F4003010B1012000902F
:1009A00001E0002000900098012831D119484068EA
:1009B00018494860084640684860084640684860F2
:1009C0000846406820F47C1048600846406840F4BF
:1009D000981048600846006840F08070086000BFCA
:1009E0000C48006800F000700028F9D00948406801
:1009F00020F00300074948600846406840F00200C4
:100A0000486000BF0348406800F00C000828F9D196
:100A10000CBD000000100240042808D14FF0E02176
:100A2000096941F004014FF0E022116107E04FF045
:100A3000E021096921F004014FF0E02211617047C3
:100A400010B515480078401CC0B2134908700A2838
:100A500006DB0020087011480068401C0F49086040
:100A60000F480078401CC0B20D490870072801DB10
:100A7000002008700A48007820B90021094800F0D9
:100A8000F3FA07E006480078062803D1012105485B
:100A900000F0EAFA10BD00001C0000200000002059
:100AA0001D0000204C00002030B500210020002255
:100AB0000023204C646804F00C0121B1042906D005
:100AC000082925D107E01C4C1C4D2C6024E01A4C51
:100AD0001A4D2C6020E0174C646804F47010154C1B
:100AE000646804F48032022404EB904022B9144C70
:100AF0004443124D2C600AE00E4CE46A04F00F04EB
:100B0000631C0D4CB4FBF3F444430C4D2C6003E028
:100B1000094C0A4D2C6000BF00BF064C6468C4F34A
:100B20000314084D295D054C2468CC40034D2C600E
:100B300030BD00000010024000127A003800002092
:100B400000093D003C00002010B51448006840F04A
:100B500001001249086008464068114908400F49E1
:100B60004860084600680F4908400C49086008467C
:100B7000006820F4802008600846406820F4FE00E9
:100B800048604FF41F0088600020C862FFF7E4FE51
:100B90004FF000600449086010BD000000100240E2
:100BA0000000FFF8FFFFF6FE08ED00E010B5084872
:100BB000006808490860084800F0A6F8C1B2074874
:100BC00002780078401C054B18700548815410BD10
:100BD000000000201800002000380140080000201C
:100BE00058000020F0B50346002400260025002010
:100BF00040F66A17B94200D100BF1846C1F342144B
:100C000001F01F06012707FA06F5012C01D10C306F
:100C100004E0022C01D1103000E014301AB1076852
:100C20002F43076002E00768AF430760F0BD000094
:100C30002DE9F04786B005460E460024A24600BFC7
:100C4000A1460027B08900B100BF2F462C8A4CF680
:100C5000FF700440F08804432C82AC894EF6F310F8
:100C60000440B08831890843718908430443AC814A
:100C7000AC8A4FF6FF400440B0890443AC8201A81F
:100C8000FFF712FD1F48874202D1DDF810A001E0F6
:100C9000DDF80CA0A88900F4004040B10AEBCA00BE
:100CA00000EB0A1031684900B0FBF1F807E00AEBED
:100CB000CA0000EB0A1031688900B0FBF1F864202B
:100CC000B8FBF0F004012009642101FB1089A88918
:100CD00000F4004040B1322000EBC900B0FBF1F05D
:100CE00000F00700044308E0322000EB0910642103
:100CF000B0FBF1F000F00F0004432C8106B0BDE81A
:100D0000F08700000038014001468888C0F30800E1
:100D1000704700002DE9F04F8BB081460E460998D0
:100D200020F003000990099820F00C000990099820
:100D300020F0F00009904FF07E50089000200790BE
:100D400006900120059009244FF0000A15E005984F
:100D500000EB800040000590089800F08DFF0746EA
:100D60005E4A5F4B00F0A0FDCDE9000100F07CFC85
:100D700008900AF1010000F0FF0AB245E7DB00210C
:100D8000484601F01DF909D2099820F00300401CE3
:100D900009905449484601F047F98146059801F009
:100DA000E3F80746494601F03FF98146484600F01E
:100DB00063FF824600224C4B00F088FC074600F09F
:100DC00053FC8146484601F0B3F807902EB30998CA
:100DD00020F00C00001D099018E00A21079890FBF4
:100DE000F1F201FB1200303002A90855079800F01B
:100DF00044FD8246394A3A4B00F056FD074600F062
:100E00000DFD0790601EC4B2701EC6B2002EE4D164
:100E10002E2002A90855601EC4B200BF0A210798FF
:100E200090FBF1F201FB1200303002A9085507983F
:100E300000F023FD0746294A294B00F035FD824684
:100E400000F0ECFC0790601EC4B207980028E5D1C2
:100E5000099800F0030020B12D2002A90855601E5A
:100E6000C4B20998C0F38100F8B1C4F1080109982F
:100E700061F307100990099800F0030030B1099858
:100E80000009401E099960F30711099108E00998CB
:100E90000009401E099960F307110991601CC4B252
:100EA0000998C0F303100428F1DC0025611CC8B2C6
:100EB00007E002A9095C0D4A5155411CC8B2691CE2
:100EC000CDB20A28F5DB04E0002008494855681C2B
:100ED000C5B20A2DF8DB0BB0BDE8F08F9A9999994D
:100EE0009999B93F000080BF0000E03F90000020CA
:100EF00010B5002804DB0A07130E054A135406E058
:100F00000A07140E034A00F00F031B1FD45410BD30
:100F100000E400E018ED00E02DE9F0418CB08046DF
:100F20000F460026002009900A900B90089020217F
:100F30006846FFF7B0F901E0701C46B2B85D0028C2
:100F4000FAD100BF04E0395C09AA1154411CC8B2AF
:100F5000B042F8DB0325701E44B234E008A8405DBF
:100F600009A9095D2039334A515C60EA010008A9EA
:100F7000485509A8005D7C2814D009A8005D2E28DA
:100F800010D0601E09A9085C212801D1002C09DCC1
:100F9000601E09A9085C2D2811D109A8005D31281F
:100FA0000DD165B9601E44B208A8405D09A9095D6C
:100FB0002039204A515C60EA010008A94855681EA2
:100FC00045B2601E44B2002D01DB002CC6DA0020C1
:100FD00015E000210FE008AA125C01238B401A40A3
:100FE0006B4603EBC0035B5C1A436B4603EBC00329
:100FF0005A544A1CD1B20829EDDB411CC8B204285E
:10100000E7DB00200FE0002109E06A4602EBC002A6
:10101000535C094A02EBC00253544A1CD1B208295E
:10102000F3DB411CC8B20428EDDB701C40B20CB0ED
:10103000BDE8F081CE2200087000002010B5024605
:1010400000200CE0002106E00024064B03EBC00367
:101050005C544B1CD9B20829F6DB411CC8B20428E9
:10106000F0DB10BD7000002070B505460C46A4BB37
:101070001D480078401C1C4908700846007800F0A4
:101080000700087008460078B0B918480078401C7E
:10109000164908700846007800F0030008704FF405
:1010A000F0511348FFF757FA1248104A127830F8F7
:1010B00012100F48FFF74DFAFF210D48FFF749FACC
:1010C0000C480830094A127800EBC200064A127830
:1010D000815C0748FFF73FFA04E0FFE7FF2104487F
:1010E000FFF737FA70BD0000220000202300002027
:1010F000000801406800002010B502460020104999
:1011000008701049087000BF15E000F109010123C3
:101110008B4099B20C4B23F81010002107E00024FB
:10112000094B083303EBC0035C544B1CD9B20829AC
:10113000F5DB411CC8B20428E7DB104610BD0000F7
:1011400022000020230000206800002010B5024883
:10115000FFF7D2FF10BD00004C00002086B0012038
:10116000FFF718FB4FF400210020FFF73DFB0120A3
:10117000FFF734FB0220FFF753FBB020FFF7FEFA26
:101180000020FFF713FB0020FFF71CFBFFF78CFC90
:101190000420FFF741FCFE48006842F21071B0FBEA
:1011A000F1F4601EB0F1807F00D30FE0601E4FF0BD
:1011B000E02148610F214FF0FF30FFF799FE00203A
:1011C0004FF0E02188610720086100BF032002463C
:1011D000F04B19684FF6FF031940EF4B0B4343EAFE
:1011E0000221EC4B196000BF00BF19460968C1F32A
:1011F0000220002213460146C1F10707042F01D93E
:10120000042701E0C1F107073E460F1D072F01D259
:10121000002700E0CF1E3D460127B7407F1E174044
:10122000AF404FF0010C0CFA05FCACF1010C0CEADC
:10123000030C47EA0C0421464FF0FF30FFF758FE3D
:10124000012144F21C00FFF70FFA01214FF0C050BA
:10125000FFF7FAF9FF21D148FFF77BF904A8FFF760
:101260007CF910208DF81300FF20ADF8100002204B
:101270008DF8120004A9C948FFF7E0F814208DF892
:1012800013004FF4F050ADF8100002208DF812005A
:1012900004A9C248FFF7D2F84FF40050ADF810008F
:1012A00048208DF8130002208DF8120004A9BC48D4
:1012B000FFF7C4F80C20ADF80E004FF41650019063
:1012C0000020ADF80C00ADF80A00ADF80800ADF84C
:1012D000100001A9B348FFF7ABFC012240F22551F1
:1012E000B048FFF77FFC25208DF8140001208DF811
:1012F00017008DF8150000208DF8160005A8FFF7DF
:1013000035F9A948406840F00100A74948600846FF
:10131000406840F0020048600846406840F0040021
:1013200048600120FFF75AF90420FFF76BF84AF2F2
:101330005A51884222D0FFF7ADF90120FFF7A4F9F6
:101340000020FFF7A1F90120FFF72AFA4FF40070FF
:10135000FFF75EFA0120FFF755FAFFF7E1FA49F6C9
:101360003F40FFF7CDFAFFF7DBFA0020FFF7BAFAAC
:101370004AF25A510420FFF753F809E00020FFF722
:101380000FFA0120FFF70CFAFFF7D4FAFFF7C8FABB
:1013900003208DF8140001208DF817008DF815003A
:1013A00000208DF8160005A8FFF7E0F87F48FFF74A
:1013B00045FE7FA17D48FFF7AFFDFFF7BBFAFFF7C2
:1013C00057FA7D4908600220FFF732F9012802D15F
:1013D0000220FFF709F90220FFF754FA012802D191
:1013E0000220FFF729FA33E17448006800F5FA702B
:1013F0007349096888427DD872480078002879D0FE
:1014000071497248FEF76EFF18B90120FFF7C8F95D
:1014100076E06D490A316D48FEF764FF18B9002087
:10142000FFF7BEF96CE00722674913316748FEF702
:10143000E7FE78BB00BF6548407A30386349097AD7
:10144000303901EB810100EB4100C0EB001080005E
:10145000C0EB001084005D48007B30385B49C97ADE
:10146000303901EB810100EB4100C0EB001004EBCF
:1014700080045648C07B30385449897B303901EBB1
:10148000810100EB41000444FFF74AFA2046FFF7D0
:1014900029FA35E0FFE709224B491B314B48FEF79B
:1014A000AFFE40BB00BF4948807A303842F210712D
:1014B00000FB01F44548C07A303800EB4001C1EB35
:1014C000C01004EBC0044148007B303800EBC00181
:1014D00001EB001004EB80043C48407B303800EB0B
:1014E000800004EB40043948807B30380444FFF727
:1014F00017FA01E016E003E0601EFFF701FA00BFF3
:10150000002004E00021314A1154411CC8B21028C7
:10151000F8DB00202B490870FFF70CFAFFF7A8F959
:1015200025490860FFF706FAFFF7A2F92849086085
:1015300028484068096888427DD0254800682549C8
:101540004860234800684FF46161B0FBF1F0182156
:10155000B0FBF1F201FB12001E4908701C48006844
:101560003C21B0FBF1F0B0FBF1F201FB1200194994
:101570004870174800683C21B0FBF1F201FB1200F3
:1015800014498870887800F007FD0546124925E067
:10159000380000200CED00E00000FA0500080140D2
:1015A0000010014000380140002004E04C00002001
:1015B0002D2D2D2D0000000014000020180000200B
:1015C0000000002008000020AA2200085800002087
:1015D000040000200C0000200000C842284600F053
:1015E000E5FB05461B49487800F0D6FC0446294631
:1015F00000F06EFB054602212846FFF78BFB1649DB
:101600001648FFF789FC164800683C301549096800
:1016100088421CD8FFF784F9124800684FF46171C2
:10162000B0FBF1F201FB12040E480068041B04F544
:101630006174601E00E00BE0FFF746F9FFF770F9F8
:1016400001210220FFF730F9FEF7D8FF00BF00BFED
:10165000CAE600000C000020900000204C00002092
:10166000140000200400002021F00042A2F160528A
:10167000B2F5801F01F0004328BFD2F17F6C0BD977
:101680005FEA001C43EAC20242EB507018BF704789
:1016900028BF20F001007047B2F5801FBCBF18467C
:1016A00070474FEA410C1CF5001F02D2084600F0BB
:1016B00082BD70B500F0A2F900000089FFF7F6BF07
:1016C0004FF00040A0F580007047000010B591EA8F
:1016D000030F48BF83F0004300F1EC81841A71EBE3
:1016E000030C05D2121943EB0C03001B61EB0C0138
:1016F000DFF824E14FEA1154A4EB135C1EEA430F18
:1017000018BF9EEA445F73D023EA0E03DCF1200E7B
:1017100021EA045143F4801332D322FA0CFE10EB79
:101720000E0023FA0CFE41EB0E01CCF1200E03FA61
:101730000EFE10EB0E0051F10001B1F5801FCCF14F
:10174000200E32D201EB045112FA0EF2BDE8104025
:1017500058BF7047401C38BF5FEA420218BF70474D
:10176000002814BF20F0010041F100014FEA4103BD
:1017700013F5001F38BF7047A1F1C04100F08CB9CC
:10178000012A43EB0302ACF1200CDCF11F0E32BF47
:101790004FF0000E23FA0CF310EB030041EB045161
:1017A000B4EB115FD0D0A1EB045101F580114908D1
:1017B0005FEA300001EB04510ED350F1000038BF56
:1017C00012FA0EFE08D1BDE81040C9E7401C38BF30
:1017D0005FEA4202CAD1C3E7BDE810404FEA4103C5
:1017E00013F5001F38BF7047A1F1C04100F054B994
:1017F0009EEA445F08D011EA5E0FBDE8104004BFC6
:1018000001F0004100207047BDE8104070B500F0C5
:10181000F5F800BF64FBBE3E0000E0FF4FEA410365
:101820004FEA5353A3F58063D3F11E03C8BFD3F12E
:10183000210C0CDD4FF0004242EAC12242EA505234
:1018400032FA03FC8CEAE17CACEBE1707047102BC0
:10185000C4BF0020704703F5787CBCF1FF3F04D083
:101860006FF0004282EA2100704770B500F0C6F8C0
:101870004992248000207047F2E710F0004248BFF0
:101880004042B0FA80F310FA03F10AD0C3F11D030D
:1018900003F580634FEA415002EB035202EBD12182
:1018A00070474FF000007047DFF848C170B51CEA80
:1018B000111E1EBF1CEA13159EEA0C0F95EA0C0FB1
:1018C00000F06F8081EA030423EA4C134EEAD47ED1
:1018D00021EA4C1141F4801143F48013AE44A1FB82
:1018E000024CA0FB0365AEF17F7E361955EB0C056B
:1018F000A1FB034C4CF10003A0FB021C16EB0C06F1
:10190000654153F10003094218BF46F0010613F484
:10191000007F0BD14FEA03314FEA0530340341EA2F
:10192000155140EA16506FF003020AE04FEAC32156
:101930004FEAC520F40241EA555140EA56506FF093
:10194000020202EB2E4201EB025585EACE710AD06B
:101950005FEA440C18BF24F0004450F1000041F14C
:10196000000120EAD47040F2FE7C624500D270BDD6
:10197000A84214BF4FF080444FF04044002E08BFEF
:101980000024BEF1806FA8BFA1F1C041BDE8704046
:1019900080F282804FF0000001F1C04101F000416F
:1019A00070479EEA0C0F0CEA131518BF95EA0C0F4E
:1019B00006D04FF0000081EA030E0EF0004170BD2A
:1019C00000F01CF88900013E00F007B800F009B8EB
:1019D0004FEA430C5FEA5C5C08D081EA030100F047
:1019E0005BB84FEA410C5FEA5C5CF6D14FF0000057
:1019F000014970470000FF070000F87F0EF1020E5A
:101A00002EF0030E5EF8046B364205D4012A43EB38
:101A1000030515F5001F12D8012841EB010C1CF538
:101A2000001F0CD80ED14FEAD17C15F5001F0CEB2E
:101A30004C0C0CF1020C08BF4CEBD37C04E04FF0D3
:101A4000080C01E04FEAD37C0CEB4C0526FA05F6B6
:101A500006F00706B6F1040C06D20EEB860CBDE8C4
:101A600070404CF0010C6047DFE80CF0090B0202FB
:101A70004FF000414FF00000A1F5002170BD194664
:101A80001046012851EB010418BFD4F5001484BF9F
:101A9000002001F0004170BD0808A0F500114FEAD8
:101AA0003101704710B591EA030F48BF83F000433E
:101AB0003FF514AE841A71EB030C07D212198CF0A7
:101AC000004C43EB0C03001B61EB0C01DFF8A4E1BD
:101AD0004FEA1154A4EB135C1EEA430F18BF9EEAB1
:101AE000445F00F0B08023EA6E03524221EA0451C1
:101AF000C3EB6E0338BF5B1EDCF1200E25D322FA48
:101B00000CFE10EB0E0043FA0CFE41EB0E01CCF183
:101B1000200E03FA0EFE10EB0E0051F10001CCF185
:101B2000200E29D412FA0EF201EB0451BDE8104048
:101B300058BF7047401C1CBFB2F1004F70470028CF
:101B40000CBF491C20F00100704712EB020E43EB62
:101B5000030218BF4FF0010E4EEA4202ACF1200C16
:101B6000DCF11E0E54D943FA0CFE10EB0E0051F1BD
:101B7000FF31CCF11E0ED5D50EF1010E12FA0EFE7C
:101B8000404141EB010101EB445C5FEA5C5C10D930
:101B900010EBDE7001EB045138BFBEF1004FBDE821
:101BA000104018BF704700280CBF491C20F00100EE
:101BB000704730D24FEAD42C11F5001124F40064A0
:101BC0001BD0B1FA81F20B3AA41AA41ED2F1200361
:101BD000914030FA03F31943904001EBCC71002C93
:101BE00001EB0451BDE81040A8BF704701F1C041AE
:101BF0004FF0000001F000417047B0FA80F310FA96
:101C000003F100D110BDE41A173C4805C90AE4E706
:101C100001EB045110BD491001EB0451BDE8104027
:101C20004FEA300002E04FF0000170474A0008BF61
:101C30000042F8D0B2F5001F28BF704701F0004104
:101C40004FF0000070479EEA445F07D011EA5E0F34
:101C5000BDE8104004BF002100207047BDE81040DF
:101C600070B5FFF7CBFE00BF40DFF63E83F00041CA
:101C7000104670470000E0FF43004FEAD30C4FEAE4
:101C80003C0C43401FBF40070CF1605113F0FE4F66
:101C900070471CF0006F03D100200CF0004170472A
:101CA0000CF0004343EA507010B540EACC0000F05D
:101CB0003CFA00BF000000924FEA0001FFF7ECBEC3
:101CC0004FF000414FF00000A1F5002170470000E7
:101CD00090EA010F48BF81F0004100F17882421A7A
:101CE0003CBF801A89184FEAD0524FF07F4C1CEA53
:101CF000410FA2EBD15318BF9CEA026F00F03B806A
:101D00004FF0004C4CEA00204CEA012121FA03FC80
:101D100010EB0C0C1ED202F1FF325FEA1C2040EBEC
:101D2000C25038BF70471CF07F0F4FEA400C18BFFD
:101D3000BCF17F4F38BF7047C3F12003994008BF03
:101D400020F00100BCF17F4F38BF7047A0F1C040C8
:101D500000F031BA4FEA3C00000A40EBC25028BF05
:101D60001CF0FF0F4FEA400CE6D018BFBCF17F4FCC
:101D700038BF7047EAE79CEA026F05D010EA5C0FB3
:101D800008BF00F00040704710B500F0CEF900BF6A
:101D900064FBBE3E401058BFC0F14040491058BFE0
:101DA000C1F140418142EFF3008070474FF47F0C56
:101DB0001CEAD0121EBF1CEAD11392EA0C0F93EA60
:101DC0000C0F00F0858090EA010F48BF42F480724A
:101DD00040F4000C41F400002CF07F4120F07F40E3
:101DE00000B58142A2EB03020FF2081CACEB504E8F
:101DF000C0F100009EF800E04FEA4E0E00FB0EFC22
:101E000038BF49004FEA2C1C02F5FA020CFB0EF316
:101E10004FEACE1E4FEA112C4FEAC1210EEB635E52
:101E200042EB22420EFB0CFC4FEA1C5300FB031159
:101E30004FEA112C4FEA01310EFB0CFC4FEADC4C4F
:101E400000FB0C11C14228BF09184CEB03335DF8AD
:101E500004EB10EB410143EBC250B2F57C0F38BFED
:101E6000704729D512F0F00F1CBF00F1C04000F000
:101E700000407047008182838485868788898B8CA7
:101E80008D8E8F919293959697999A9C9D9FA0A2E3
:101E9000A3A5A7A8AAACAEB0B2B3B5B7B9BCBEC033
:101EA000C2C5C7C9CCCED1D4D7D9DCDFE2E6E9ECD4
:101EB000F0F3F7FAFE0000004FEA400C0CF1807CD2
:101EC000BCF17E4F28BF7047B0F1C04000F073B93D
:101ED00090EA010F0CEAD11348BF42F480726245C8
:101EE00038BF634507D213F47F0F16D080EA010094
:101EF00000F00040704710B500F017F9097EFC3E75
:101F000000F005B880EA010000F00040704780EA68
:101F1000010000F0004000F04EB912F47F0F04BF42
:101F20000248704780EA010000F045B90000C07F18
:101F300041000B0ED3F19E0208D950F400034FEA82
:101F4000032323FA02F048BF4042704710B500F067
:101F5000ECF800BF49922480002070476FF00042E7
:101F600082EA20007047000010F0004148BF404264
:101F7000B0FA80F310FA03F2C3F19D030BD051EADB
:101F8000C35101EB1220530638BF704700F1010026
:101F900008BF20F001007047B0FA80F310FA03F296
:101FA000C3F19D030AD0D90501EB1220530638BFB7
:101FB000704700F1010008BF20F0010070470000E9
:101FC00050EA010C00F113801CF5000F58BFBCF55E
:101FD000000F01D48842704707D710F5000F58BF93
:101FE00011F5000F15D488427047894270471CF5DF
:101FF000000F04D5BCF5000FF7D5814270474FF0B4
:10200000807C1CEB400F38BF1CEB410F01D281429A
:10201000704710B500F089F8922449004FF0005045
:102020004FF08051FFF7B6BE4FF47F0C1CEAD01280
:102030001EBF1CEAD11392EA0C0F93EA0C0F00F0BA
:10204000478090EA010F48BF42F480724FF0004C85
:102050004CEA00204CEA012102EB0302A0FB011331
:10206000A2F50002002918BF43F001035B0028BF5E
:102070004FEA330342EB22425FEA132C4CEBC2508F
:102080002EBFBCEB436FB2F57C0F70474FEA036C79
:10209000BCF1004F08BF20F00100B2F57C0F38BF43
:1020A00070470BD582F0FF0212F5803FC8BF704722
:1020B00000F1C040D8BF00F00040704700F5000CB0
:1020C0005FEA4C0C48BF7047B0F1C04000F073B8F5
:1020D00090EA010F0CEAD11348BF42F480726245C6
:1020E00038BF634504D280EA010000F00040704729
:1020F00010B500F01AF800BF8900013E00F007B8E3
:1021000000F009B85FEA410C5FEA1C6C08D080EA75
:10211000010000F050B85FEA400C5FEA1C6CF6D199
:102120004FF00040A0F5800070470EF1020E2EF037
:10213000030E5EF8044B244204D44FEA4102B2F18C
:102140007F4F11D84FEA4003B3F17F4F0CD80ED127
:102150004FEAD07CB2F17F4F0CEB4C0C0CF1020C2F
:1021600008BF4CEBD17C04E04FF0080C01E04FEAD3
:10217000D17C0CEB4C0324FA03F404F00704B4F113
:10218000040C06D20EEB840CBDE810404CF0010CA0
:102190006047DFE80CF0070802024FF00040A0F5AE
:1021A000800010BD0846420018BFD2F1807288BF7F
:1021B00000F0004010BDFF2141EAD050C00570473B
:1021C00090EA010F48BF81F000413FF588AD421A07
:1021D00004D882F00042A0EB020011444FEAD05232
:1021E0004FF07F4C1CEA410FA2EBD15318BF9CEA81
:1021F000026F4AD04FF0004C4CEA00204CEA01211B
:1022000021FA03FCB0EB0C0C0FD412F0FE0F36D009
:102210005FEA4C001DD5001240EBC25038BF70473A
:102220001CF03F0F18BF70470BE0A2F101025FEAFC
:102230001C2040EBC25038BF70471CF07F0F18BF06
:102240007047C3F12003994014BF401E20F00100E5
:10225000704780084FEA122308BF7047B0FA80FC2D
:10226000A2EB0C02CCF1280C60FA0CF093EA122FCE
:1022700004BF00EBC25070474FEAC3707047130AA7
:102280005FEADC1008BF7047F6E79CEA026F04D0F3
:1022900010EA5C0F08BF0020704710B5FFF745FF3C
:1022A00040DFF63E81F000407047737461727454F1
:1022B000696D650073746F7054696D650073657442
:1022C00054696D650063616C696252544300FFCFCD
:1022D000FFFFFFFFFFFFFFFFFFFF7FBF7FFFC0F993
:1022E000A4B0999282F88090FFFFFFFFFFFFFF8864
:1022F00083C6A1868EC289E6F28DC7AAABA38C984D
:10230000AF9287C1E395E291B6FFFFFFFFF7FF8829
:1023100083C6A1868EC289E6F28DC7AAABA38C982C
:10232000AF9287C1E395E291B6FFF9FFC8000000C4
:1023300054230008000000204C0000005C0100084D
:10234000A02300084C000020B4060000780100081B
:10235000FDEDFFFF00000000000000000000000095
:10236000000000000000000000000000000000006D
:102370000000000000000000000000000102030453
:1023800001020304060708090204060800366E016C
:102390000000000000000000010203040607080915
:0400000508000121CD
:00000001FF
